:100000000C9434000C9449000C9449000C94490061
:100010000C9449000C9449000C9449000C9449003C
:100020000C9449000C9449000C9449000C948E00E7
:100030000C9449000C9449000C9449000C9449001C
:100040000C9449000C9449000C9449000C9449000C
:100050000C9449000C9449000C9449000C944900FC
:100060000C9449000C94490011241FBECFEFD8E036
:10007000DEBFCDBF11E0A0E0B1E0EAE5F1E002C0F3
:1000800005900D92A031B107D9F70E949B000C9406
:10009000AB000C9400009C0114BC85B5836085BD49
:1000A0002150310908F4089516BC86B58A3FE8F35B
:1000B000F7CF9093C5008093C40088E08093C1007F
:1000C00086E08093C20008959091C00095FFFCCF18
:1000D0008093C6000895CF93DF93EC01899181113D
:1000E00003C0DF91CF9108950E946400F7CF109272
:1000F0008000E1E8F0E080818860808388E09DE313
:100100009093890080938800808185608083EFE6EA
:10011000F0E0808182608083789408958F938FB718
:100120008F939F9385B191E0892785B99F918F9196
:100130008FBF8F911895209A87E690E00E94590012
:100140000E94770080E091E00E946B0088EE93E0CF
:0A0150000E944B00F7CFF894FFCF98
:10015A0048656C6C6F2C20576F726C64210D0A0015
:00000001FF
